{
  "contractName": "HelloOptimized",
  "abi": [
    {
      "anonymous": false,
      "inputs": [
        {
          "indexed": true,
          "internalType": "address",
          "name": "sender",
          "type": "address"
        },
        {
          "indexed": false,
          "internalType": "string",
          "name": "message",
          "type": "string"
        },
        {
          "indexed": false,
          "internalType": "uint256",
          "name": "timestamp",
          "type": "uint256"
        },
        {
          "indexed": false,
          "internalType": "uint8",
          "name": "messageType",
          "type": "uint8"
        }
      ],
      "name": "MessageEvent",
      "type": "event"
    },
    {
      "inputs": [],
      "name": "MAX_MESSAGE_LENGTH",
      "outputs": [
        {
          "internalType": "uint8",
          "name": "",
          "type": "uint8"
        }
      ],
      "stateMutability": "view",
      "type": "function"
    },
    {
      "inputs": [],
      "name": "counter",
      "outputs": [
        {
          "internalType": "uint128",
          "name": "",
          "type": "uint128"
        }
      ],
      "stateMutability": "view",
      "type": "function"
    },
    {
      "inputs": [
        {
          "internalType": "string",
          "name": "message",
          "type": "string"
        }
      ],
      "name": "sayHello",
      "outputs": [],
      "stateMutability": "nonpayable",
      "type": "function"
    },
    {
      "inputs": [
        {
          "internalType": "string",
          "name": "message",
          "type": "string"
        }
      ],
      "name": "sendGreeting",
      "outputs": [],
      "stateMutability": "nonpayable",
      "type": "function"
    },
    {
      "inputs": [
        {
          "internalType": "string",
          "name": "message",
          "type": "string"
        },
        {
          "internalType": "bool",
          "name": "isGreeting",
          "type": "bool"
        }
      ],
      "name": "sendMessage",
      "outputs": [],
      "stateMutability": "nonpayable",
      "type": "function"
    },
    {
      "inputs": [],
      "name": "getCounter",
      "outputs": [
        {
          "internalType": "uint128",
          "name": "",
          "type": "uint128"
        }
      ],
      "stateMutability": "view",
      "type": "function"
    },
    {
      "inputs": [
        {
          "internalType": "string[]",
          "name": "messages",
          "type": "string[]"
        },
        {
          "internalType": "bool",
          "name": "isGreeting",
          "type": "bool"
        }
      ],
      "name": "sendBatchMessages",
      "outputs": [],
      "stateMutability": "nonpayable",
      "type": "function"
    },
    {
      "inputs": [
        {
          "internalType": "string",
          "name": "message",
          "type": "string"
        },
        {
          "internalType": "bool",
          "name": "isGreeting",
          "type": "bool"
        }
      ],
      "name": "estimateGasForMessage",
      "outputs": [
        {
          "internalType": "uint256",
          "name": "",
          "type": "uint256"
        }
      ],
      "stateMutability": "view",
      "type": "function"
    }
  ],
  "bytecode": "0x608060405234801561001057600080fd5b50610dce806100206000396000f3fe608060405234801561001057600080fd5b50600436106100885760003560e01c8063c3b2ea8c1161005b578063c3b2ea8c14610103578063e7f5edd01461011f578063f410fd0e1461014f578063f456db7f1461016b57610088565b80632a0272111461008d57806361bc221a146100ab5780638ada066e146100c9578063c3a9b1c5146100e7575b600080fd5b610095610187565b6040516100a29190610af9565b60405180910390f35b6100b361018c565b6040516100c09190610ac3565b60405180910390f35b6100d16101ac565b6040516100de9190610ac3565b60405180910390f35b61010160048036038101906100fc9190610830565b6101d1565b005b61011d60048036038101906101189190610871565b61026f565b005b61013960048036038101906101349190610871565b610380565b6040516101469190610ade565b60405180910390f35b61016960048036038101906101649190610830565b6103e7565b005b610185600480360381019061018091906107dc565b6104e3565b005b606481565b60008054906101000a90046fffffffffffffffffffffffffffffffff1681565b60008060009054906101000a90046fffffffffffffffffffffffffffffffff16905090565b606460ff1681511115610219576040517f08c379a000000000000000000000000000000000000000000000000000000000815260040161021090610a83565b60405180910390fd5b3373ffffffffffffffffffffffffffffffffffffffff167f42d4b2e499b042fe9131a32948381eda258030d8ad5e7fed2fb2f34081d31c8b82426000604051610264939291906109c9565b60405180910390a250565b606460ff16825111156102b7576040517f08c379a00000000000000000000000000000000000000000000000000000000081526004016102ae90610a83565b60405180910390fd5b801561031c5760008081819054906101000a90046fffffffffffffffffffffffffffffffff168092919060010191906101000a8154816fffffffffffffffffffffffffffffffff02191690836fffffffffffffffffffffffffffffffff160217905550505b3373ffffffffffffffffffffffffffffffffffffffff167f42d4b2e499b042fe9131a32948381eda258030d8ad5e7fed2fb2f34081d31c8b834284610362576000610365565b60015b60405161037493929190610a45565b60405180910390a25050565b600080615208905060006102ee905060006010865161039f9190610c13565b90506000856103af5760006103b3565b6113885b61ffff169050808284866103c79190610bbd565b6103d19190610bbd565b6103db9190610bbd565b94505050505092915050565b606460ff168151111561042f576040517f08c379a000000000000000000000000000000000000000000000000000000000815260040161042690610a83565b60405180910390fd5b60008081819054906101000a90046fffffffffffffffffffffffffffffffff168092919060010191906101000a8154816fffffffffffffffffffffffffffffffff02191690836fffffffffffffffffffffffffffffffff160217905550503373ffffffffffffffffffffffffffffffffffffffff167f42d4b2e499b042fe9131a32948381eda258030d8ad5e7fed2fb2f34081d31c8b824260016040516104d893929190610a07565b60405180910390a250565b600082519050600a81111561052d576040517f08c379a000000000000000000000000000000000000000000000000000000000815260040161052490610aa3565b60405180910390fd5b60005b818110156106d257606460ff16848281518110610576577f4e487b7100000000000000000000000000000000000000000000000000000000600052603260045260246000fd5b60200260200101515111156105c0576040517f08c379a00000000000000000000000000000000000000000000000000000000081526004016105b790610a83565b60405180910390fd5b82156106255760008081819054906101000a90046fffffffffffffffffffffffffffffffff168092919060010191906101000a8154816fffffffffffffffffffffffffffffffff02191690836fffffffffffffffffffffffffffffffff160217905550505b3373ffffffffffffffffffffffffffffffffffffffff167f42d4b2e499b042fe9131a32948381eda258030d8ad5e7fed2fb2f34081d31c8b858381518110610696577f4e487b7100000000000000000000000000000000000000000000000000000000600052603260045260246000fd5b602002602001015142866106ab5760006106ae565b60015b6040516106bd93929190610a45565b60405180910390a28080600101915050610530565b50505050565b60006106eb6106e684610b45565b610b14565b9050808382526020820190508260005b8581101561072b578135850161071188826107b2565b8452602084019350602083019250506001810190506106fb565b5050509392505050565b600061074861074384610b71565b610b14565b90508281526020810184848401111561076057600080fd5b61076b848285610cd0565b509392505050565b600082601f83011261078457600080fd5b81356107948482602086016106d8565b91505092915050565b6000813590506107ac81610d81565b92915050565b600082601f8301126107c357600080fd5b81356107d3848260208601610735565b91505092915050565b600080604083850312156107ef57600080fd5b600083013567ffffffffffffffff81111561080957600080fd5b61081585828601610773565b92505060206108268582860161079d565b9150509250929050565b60006020828403121561084257600080fd5b600082013567ffffffffffffffff81111561085c57600080fd5b610868848285016107b2565b91505092915050565b6000806040838503121561088457600080fd5b600083013567ffffffffffffffff81111561089e57600080fd5b6108aa858286016107b2565b92505060206108bb8582860161079d565b9150509250929050565b6108ce81610cac565b82525050565b6108dd81610cbe565b82525050565b60006108ee82610ba1565b6108f88185610bac565b9350610908818560208601610cdf565b61091181610d70565b840191505092915050565b6000610929601083610bac565b91507f4d65737361676520746f6f206c6f6e67000000000000000000000000000000006000830152602082019050919050565b6000610969601183610bac565b91507f546f6f206d616e79206d657373616765730000000000000000000000000000006000830152602082019050919050565b6109a581610c79565b82525050565b6109b481610c95565b82525050565b6109c381610c9f565b82525050565b600060608201905081810360008301526109e381866108e3565b90506109f260208301856109ab565b6109ff60408301846108c5565b949350505050565b60006060820190508181036000830152610a2181866108e3565b9050610a3060208301856109ab565b610a3d60408301846108d4565b949350505050565b60006060820190508181036000830152610a5f81866108e3565b9050610a6e60208301856109ab565b610a7b60408301846109ba565b949350505050565b60006020820190508181036000830152610a9c8161091c565b9050919050565b60006020820190508181036000830152610abc8161095c565b9050919050565b6000602082019050610ad8600083018461099c565b92915050565b6000602082019050610af360008301846109ab565b92915050565b6000602082019050610b0e60008301846109ba565b92915050565b6000604051905081810181811067ffffffffffffffff82111715610b3b57610b3a610d41565b5b8060405250919050565b600067ffffffffffffffff821115610b6057610b5f610d41565b5b602082029050602081019050919050565b600067ffffffffffffffff821115610b8c57610b8b610d41565b5b601f19601f8301169050602081019050919050565b600081519050919050565b600082825260208201905092915050565b6000610bc882610c95565b9150610bd383610c95565b9250827fffffffffffffffffffffffffffffffffffffffffffffffffffffffffffffffff03821115610c0857610c07610d12565b5b828201905092915050565b6000610c1e82610c95565b9150610c2983610c95565b9250817fffffffffffffffffffffffffffffffffffffffffffffffffffffffffffffffff0483118215151615610c6257610c61610d12565b5b828202905092915050565b60008115159050919050565b60006fffffffffffffffffffffffffffffffff82169050919050565b6000819050919050565b600060ff82169050919050565b6000610cb782610c9f565b9050919050565b6000610cc982610c9f565b9050919050565b82818337600083830152505050565b60005b83811015610cfd578082015181840152602081019050610ce2565b83811115610d0c576000848401525b50505050565b7f4e487b7100000000000000000000000000000000000000000000000000000000600052601160045260246000fd5b7f4e487b7100000000000000000000000000000000000000000000000000000000600052604160045260246000fd5b6000601f19601f8301169050919050565b610d8a81610c6d565b8114610d9557600080fd5b5056fea2646970667358221220e224586e35fcc6fb660b5cfc3c5fc89ce8f3c56ce4c1dad920978e5f527cb1e564736f6c63430008000033",
  "immutableReferences": {},
  "source": "// SPDX-License-Identifier: MIT\npragma solidity ^0.8.0;\n\n/**\n * @title HelloOptimized\n * @dev Hellogas\n */\ncontract HelloOptimized {\n    // 1: \n    event MessageEvent(\n        address indexed sender,\n        string message,\n        uint256 timestamp,\n        uint8 messageType  // 0=hello, 1=greeting\n    );\n    \n    // 2: gas\n    uint128 public counter;\n    \n    // 3: gas\n    uint8 public constant MAX_MESSAGE_LENGTH = 100;\n    \n    /**\n     * @dev Hello\n     * @param message \n     */\n    function sayHello(string memory message) public {\n        // 4: \n        require(bytes(message).length <= MAX_MESSAGE_LENGTH, \"Message too long\");\n        \n        emit MessageEvent(\n            msg.sender,\n            message,\n            block.timestamp,\n            0  // messageType = 0 for hello\n        );\n    }\n    \n    /**\n     * @dev \n     * @param message \n     */\n    function sendGreeting(string memory message) public {\n        // 4: \n        require(bytes(message).length <= MAX_MESSAGE_LENGTH, \"Message too long\");\n        \n        // 5: uncheckedgascounter\n        unchecked {\n            counter++;\n        }\n        \n        emit MessageEvent(\n            msg.sender,\n            message,\n            block.timestamp,\n            1  // messageType = 1 for greeting\n        );\n    }\n    \n    /**\n     * @dev 6: \n     * @param message \n     * @param isGreeting \n     */\n    function sendMessage(string memory message, bool isGreeting) public {\n        require(bytes(message).length <= MAX_MESSAGE_LENGTH, \"Message too long\");\n        \n        if (isGreeting) {\n            unchecked {\n                counter++;\n            }\n        }\n        \n        emit MessageEvent(\n            msg.sender,\n            message,\n            block.timestamp,\n            isGreeting ? 1 : 0\n        );\n    }\n    \n    /**\n     * @dev \n     * @return \n     */\n    function getCounter() public view returns (uint128) {\n        return counter;\n    }\n    \n    /**\n     * @dev 7: gas\n     * @param messages \n     * @param isGreeting \n     */\n    function sendBatchMessages(string[] memory messages, bool isGreeting) public {\n        uint256 length = messages.length;\n        require(length <= 10, \"Too many messages\"); // gas\n        \n        for (uint256 i = 0; i < length;) {\n            require(bytes(messages[i]).length <= MAX_MESSAGE_LENGTH, \"Message too long\");\n            \n            if (isGreeting) {\n                unchecked {\n                    counter++;\n                }\n            }\n            \n            emit MessageEvent(\n                msg.sender,\n                messages[i],\n                block.timestamp,\n                isGreeting ? 1 : 0\n            );\n            \n            unchecked {\n                i++;\n            }\n        }\n    }\n    \n    /**\n     * @dev 8: gas\n     * @param message \n     * @param isGreeting \n     * @return gas\n     */\n    function estimateGasForMessage(string memory message, bool isGreeting) public view returns (uint256) {\n        // \n        uint256 baseGas = 21000; // \n        uint256 eventGas = 375 + 375; //  + indexed\n        uint256 stringGas = bytes(message).length * 16; // gas\n        uint256 storageGas = isGreeting ? 5000 : 0; // gas\n        \n        return baseGas + eventGas + stringGas + storageGas;\n    }\n} ",
  "sourcePath": "/Users/liangrunxing/Documents/project/web3/four/sat/contract/demo2/contracts/hello-optimized.sol",
  "compiler": {
    "name": "solc",
    "version": "0.8.0+commit.c7dfd78e.Emscripten.clang"
  },
  "schemaVersion": "3.4.16",
  "updatedAt": "2025-08-24T21:28:45.812Z",
  "devdoc": {
    "details": "Hellogas",
    "kind": "dev",
    "methods": {
      "estimateGasForMessage(string,bool)": {
        "details": "8: gas",
        "params": {
          "isGreeting": "",
          "message": ""
        },
        "returns": {
          "_0": "gas"
        }
      },
      "getCounter()": {
        "details": "",
        "returns": {
          "_0": ""
        }
      },
      "sayHello(string)": {
        "details": "Hello",
        "params": {
          "message": ""
        }
      },
      "sendBatchMessages(string[],bool)": {
        "details": "7: gas",
        "params": {
          "isGreeting": "",
          "messages": ""
        }
      },
      "sendGreeting(string)": {
        "details": "",
        "params": {
          "message": ""
        }
      },
      "sendMessage(string,bool)": {
        "details": "6: ",
        "params": {
          "isGreeting": "",
          "message": ""
        }
      }
    },
    "title": "HelloOptimized",
    "version": 1
  },
  "userdoc": {
    "kind": "user",
    "methods": {},
    "version": 1
  }
}