{
  "contractName": "Hello",
  "abi": [
    {
      "anonymous": false,
      "inputs": [
        {
          "indexed": true,
          "internalType": "address",
          "name": "from",
          "type": "address"
        },
        {
          "indexed": false,
          "internalType": "string",
          "name": "greeting",
          "type": "string"
        },
        {
          "indexed": false,
          "internalType": "uint256",
          "name": "timestamp",
          "type": "uint256"
        }
      ],
      "name": "GreetingEvent",
      "type": "event"
    },
    {
      "anonymous": false,
      "inputs": [
        {
          "indexed": true,
          "internalType": "address",
          "name": "sender",
          "type": "address"
        },
        {
          "indexed": false,
          "internalType": "string",
          "name": "message",
          "type": "string"
        },
        {
          "indexed": false,
          "internalType": "uint256",
          "name": "timestamp",
          "type": "uint256"
        }
      ],
      "name": "HelloEvent",
      "type": "event"
    },
    {
      "inputs": [],
      "name": "counter",
      "outputs": [
        {
          "internalType": "uint256",
          "name": "",
          "type": "uint256"
        }
      ],
      "stateMutability": "view",
      "type": "function",
      "constant": true
    },
    {
      "inputs": [
        {
          "internalType": "string",
          "name": "message",
          "type": "string"
        }
      ],
      "name": "sayHello",
      "outputs": [],
      "stateMutability": "nonpayable",
      "type": "function"
    },
    {
      "inputs": [
        {
          "internalType": "string",
          "name": "greeting",
          "type": "string"
        }
      ],
      "name": "sendGreeting",
      "outputs": [],
      "stateMutability": "nonpayable",
      "type": "function"
    },
    {
      "inputs": [],
      "name": "getCounter",
      "outputs": [
        {
          "internalType": "uint256",
          "name": "",
          "type": "uint256"
        }
      ],
      "stateMutability": "view",
      "type": "function",
      "constant": true
    }
  ],
  "bytecode": "0x608060405234801561001057600080fd5b50610484806100206000396000f3fe608060405234801561001057600080fd5b506004361061004c5760003560e01c806361bc221a146100515780638ada066e1461006f578063c3a9b1c51461008d578063f410fd0e146100a9575b600080fd5b6100596100c5565b60405161006691906102b2565b60405180910390f35b6100776100cb565b60405161008491906102b2565b60405180910390f35b6100a760048036038101906100a291906101f9565b6100d4565b005b6100c360048036038101906100be91906101f9565b610127565b005b60005481565b60008054905090565b3373ffffffffffffffffffffffffffffffffffffffff167f10c346ce65a808b935d0aa352b53a9caa2c86fc66f37f97c251c66e5971a05f8824260405161011c929190610282565b60405180910390a250565b60008081548092919061013990610396565b91905055503373ffffffffffffffffffffffffffffffffffffffff167fbfa210ccdb09bb9a3ba89e3ea396cc52bb41c91936403e413adcfe148972384f8242604051610186929190610282565b60405180910390a250565b60006101a461019f846102fe565b6102cd565b9050828152602081018484840111156101bc57600080fd5b6101c7848285610354565b509392505050565b600082601f8301126101e057600080fd5b81356101f0848260208601610191565b91505092915050565b60006020828403121561020b57600080fd5b600082013567ffffffffffffffff81111561022557600080fd5b610231848285016101cf565b91505092915050565b60006102458261032e565b61024f8185610339565b935061025f818560208601610363565b6102688161043d565b840191505092915050565b61027c8161034a565b82525050565b6000604082019050818103600083015261029c818561023a565b90506102ab6020830184610273565b9392505050565b60006020820190506102c76000830184610273565b92915050565b6000604051905081810181811067ffffffffffffffff821117156102f4576102f361040e565b5b8060405250919050565b600067ffffffffffffffff8211156103195761031861040e565b5b601f19601f8301169050602081019050919050565b600081519050919050565b600082825260208201905092915050565b6000819050919050565b82818337600083830152505050565b60005b83811015610381578082015181840152602081019050610366565b83811115610390576000848401525b50505050565b60006103a18261034a565b91507fffffffffffffffffffffffffffffffffffffffffffffffffffffffffffffffff8214156103d4576103d36103df565b5b600182019050919050565b7f4e487b7100000000000000000000000000000000000000000000000000000000600052601160045260246000fd5b7f4e487b7100000000000000000000000000000000000000000000000000000000600052604160045260246000fd5b6000601f19601f830116905091905056fea26469706673582212207b4621d31eac68d334a9a0203fe01eb2c351ca807436bc34ac701a1ad3640a7164736f6c63430008000033",
  "immutableReferences": {},
  "source": "// SPDX-License-Identifier: MIT\npragma solidity ^0.8.0;\n\n/**\n * @title Hello\n * @dev Hello\n */\ncontract Hello {\n    // \n    event HelloEvent(\n        address indexed sender,\n        string message,\n        uint256 timestamp\n    );\n    \n    event GreetingEvent(\n        address indexed from,\n        string greeting,\n        uint256 timestamp\n    );\n    \n    // \n    uint256 public counter;\n    \n    /**\n     * @dev Hello\n     * @param message \n     */\n    function sayHello(string memory message) public {\n        // Hello\n        emit HelloEvent(\n            msg.sender,\n            message,\n            block.timestamp\n        );\n    }\n    \n    /**\n     * @dev \n     * @param greeting \n     */\n    function sendGreeting(string memory greeting) public {\n        // \n        counter++;\n        \n        // \n        emit GreetingEvent(\n            msg.sender,\n            greeting,\n            block.timestamp\n        );\n    }\n    \n    /**\n     * @dev \n     * @return \n     */\n    function getCounter() public view returns (uint256) {\n        return counter;\n    }\n}\n",
  "sourcePath": "/Users/liangrunxing/Documents/project/web3/four/sat/contract/demo2/contracts/hello.sol",
  "compiler": {
    "name": "solc",
    "version": "0.8.0+commit.c7dfd78e.Emscripten.clang"
  },
  "schemaVersion": "3.4.16",
  "updatedAt": "2025-08-25T21:30:36.749Z",
  "networkType": "ethereum",
  "devdoc": {
    "details": "Hello",
    "kind": "dev",
    "methods": {
      "getCounter()": {
        "details": "",
        "returns": {
          "_0": ""
        }
      },
      "sayHello(string)": {
        "details": "Hello",
        "params": {
          "message": ""
        }
      },
      "sendGreeting(string)": {
        "details": "",
        "params": {
          "greeting": ""
        }
      }
    },
    "title": "Hello",
    "version": 1
  },
  "userdoc": {
    "kind": "user",
    "methods": {},
    "version": 1
  }
}